S01700004763634170706C69636174696F6E322E737265635A
S11300000C9434000C944D010C9471010C94510027
S11300100C9451000C9451000C9451000C94510018
S11300200C9451000C9451000C9451000C94510008
S11300300C9451000C9451000C9451000C945100F8
S11300400C9451000C9451000C94A8050C946A056E
S11300500C9451000C9451000C9451000C945100D8
S11300600C9451000C94510011241FBECFEFD8E022
S1130070DEBFCDBF11E0A0E0B1E0EAE0FBE102C0E9
S113008005900D92A832B107D9F723E0A8E2B1E0B8
S113009001C01D92A732B207E1F70E9410080C9428
S11300A0830D0C94000080912003813099F5809198
S11300B0180390911903A0911A03B0911B030196A0
S11300C0A11DB11D8093180390931903A0931A03E3
S11300D0B0931B03609118037091190380911A0364
S11300E090911B030E94640920E030E040E453E453
S11300F00E94BC0829E23CE543EA51E40E941B0A41
S11301000E943509609308037093090380930A03DE
S113011090930B0380912003823099F58091100312
S113012090911103A0911203B09113030196A11DA4
S1130130B11D8093100390931103A0931203B09305
S11301401303609110037091110380911203909135
S113015013030E94640920E030E040E453E40E9469
S1130160BC0829E23CE543EA51E40E941B0A0E94D0
S113017035096093040370930503809306039093F9
S1130180070380912003833099F48091F0029091C9
S1130190F102A091F202B091F3020196A11DB11DEA
S11301A08093F0029093F102A093F202B093F302D1
S11301B080912003843099F48091F8029091F9029F
S11301C0A091FA02B091FB020196A11DB11D80938A
S11301D0F8029093F902A093FA02B093FB020895F7
S11301E080912003813099F4809114039091150338
S11301F0A0911603B09117030196A11DB11D809320
S1130200140390931503A0931603B09317038091DE
S11302102003823099F480910C0390910D03A091F6
S11302200E03B0910F030196A11DB11D80930C0321
S113023090930D03A0930E03B0930F0380912003BA
S1130240833099F48091F4029091F502A091F60222
S1130250B091F7020196A11DB11D8093F402909311
S1130260F502A093F602B093F70280912003843044
S113027099F48091EC029091ED02A091EE02B0917C
S1130280EF020196A11DB11D8093EC029093ED0243
S1130290A093EE02B093EF0208951F920F920FB64F
S11302A00F9211242F933F934F935F936F937F93F8
S11302B08F939F93AF93BF93EF93FF930E94530049
S11302C0FF91EF91BF91AF919F918F917F916F912A
S11302D05F914F913F912F910F900FBE0F901F9000
S11302E018951F920F920FB60F9211242F933F93DC
S11302F04F935F936F937F938F939F93AF93BF932A
S1130300EF93FF930E94F000FF91EF91BF91AF91A3
S11303109F918F917F916F915F914F913F912F9119
S11303200F900FBE0F901F901895CF92DF92EF920F
S1130330FF926B017C0120E030E0A9010E94B70824
S113034088239CF020E030E048EC52E4C701B60179
S11303500E94160A181664F40F2EC12CD12CF8EC46
S1130360EF2EF2E4FF2EF02D03C0C12CD12C760128
S113037020E030E048EC52E4C701B6010E94BC081A
S113038020E030E04FE753E40E941B0A0E942E094C
S1130390CB01FF90EF90DF90CF9008958F929F92C2
S11303A0AF92BF92CF92DF92EF92FF924B015C012A
S11303B069017A0181E08093200320E030E0A90103
S11303C0C501B4010E94160A18166CF4C501B401E3
S11303D00E94350960930003709301038093020324
S11303E0909303030CC08FE796E9A8E9B0E08093EB
S11303F0000390930103A0930203B093030380913D
S1130400080390910903A0910A03B0910B03409152
S11304100003509101036091020370910303840F60
S1130420951FA61FB71F8093FC029093FD02A09313
S1130430FE02B093FF02C701B6010E94950187BD79
S1130440109289008093880081E884BD80938000A5
S11304505D982A98FF90EF90DF90CF90BF90AF9077
S11304609F908F90089520911C0330911D0340911B
S11304701E0350911F030E941B0A20E030E040E459
S113048053E40E941B0A2AE939EB45EE55E40E9425
S1130490BC080E94350908958F929F92AF92BF9233
S11304A0CF92DF92EF92FF924B015C0169017A01D6
S11304B083E08093200320E030E0A901C501B4016A
S11304C00E94B70881110DC08FEF90EEA5EFB5E043
S11304D08093E8029093E902A093EA02B093EB02BE
S11304E00CC0C501B4010E9433026093E80270930A
S11304F0E9028093EA029093EB024091F00250915A
S1130500F1026091F2027091F3028091E8029091FD
S1130510E902A091EA02B091EB02840F951FA61F95
S1130520B71F8093E4029093E502A093E602B09390
S1130530E702C701B6010E94950188BD10928900A7
S11305408093880081E284BD81E8809380005E9876
S11305502A98FF90EF90DF90CF90BF90AF909F903C
S11305608F9008958F929F92AF92BF92CF92DF9215
S1130570EF92FF924B015C0169017A0184E0809360
S1130580200320E030E0A901C501B4010E94B708AE
S113059081110DC08FEF90EEA5EFB5E08093E802D6
S11305A09093E902A093EA02B093EB020CC0C50158
S11305B0B4010E9433026093E8027093E9028093CD
S11305C0EA029093EB024091EC025091ED026091AB
S11305D0EE027091EF028091E8029091E902A091FD
S11305E0EA02B091EB02840F951FA61FB71F8093F8
S11305F0E4029093E502A093E602B093E702C701F8
S1130600B6010E94950187BD10928B0080938A00E9
S113061081E884BD81E2809380005D982998FF90F1
S1130620EF90DF90CF90BF90AF909F908F90089500
S1130630109220035E9829985D982A980895109244
S113064018031092190310921A0310921B031092AC
S113065014031092150310921603109217031092AC
S113066010031092110310921203109213031092AC
S11306700C0310920D0310920E0310920F031092AC
S1130680F8021092F9021092FA021092FB021092F0
S1130690F4021092F5021092F6021092F7021092F0
S11306A0F0021092F1021092F2021092F3021092F0
S11306B0EC021092ED021092EE021092EF021092F0
S11306C0E0021092E1021092E2021092E302109210
S11306D0DC021092DD021092DE021092DF02109210
S11306E008031092090310920A0310920B0310924C
S11306F0040310920503109206031092070310924C
S1130700E8021092E9021092EA021092EB021092AF
S1130710E4021092E5021092E6021092E7021092AF
S1130720FC021092FD021092FE021092FF0210923F
S11307300003109201031092020310920303089520
S11307402FB7FC012083F89408951F93CF93DF9370
S1130750EC01162F0A960E94A003888199810097C4
S113076029F02E813F812115310521F48A858FBF1F
S113077083E020C0488559854217530720F08A85B5
S11307808FBF81E017C02C813D81FC01E20FF31F74
S113079010838C819D8101966E817F810E94880ADD
S11307A09D838C83888599850196998788878A8516
S11307B08FBF80E0DF91CF911F9108950F931F9316
S11307C0CF93DF93EC018B010A960E94A0038881EA
S11307D09981009721F02E813F81232B21F48A8572
S11307E08FBF83E021C028853985232B21F48A8596
S11307F08FBF82E019C02A813B81FC01E20FF31F05
S11308008081F80180838A819B8101966E817F813A
S11308100E94880A9B838A83888599850197998792
S113082088878A858FBF80E0DF91CF911F910F91D8
S11308300895CF92DF92EF92FF920F931F93CF937D
S1130840DF937C018A018091F8019091F901892B51
S113085069F14091F6015091F7014D3C51050CF0BE
S1130860D5C01092F9011092F8011092F70110927C
S1130870F60114161506D4F4A8E2B1E0C091F4010F
S1130880D091F501FE01E05FFD4F20E030E02196BC
S11308906E01C20ED31E9D9191932F5F3F4F24177B
S11308A03507B4F3D092F501C092F4012091F4011C
S11308B03091F501CB01820F931F8C3C91056CF1B3
S11308C0CCECD0E0C21BD30B81E090E09093F90113
S11308D08093F8016C1B7D0B161617069CF4F70128
S11308E0EC0FFD1FA091F601B091F701A85DBE4F7A
S11308F0AB014C0F5D1F4E0D5F1D91919D93E4174D
S1130900F507D9F78091F6019091F701680F791FE7
S11309107093F7016093F601BE011616170694F45E
S1130920F701D901A05FBD4FAB016E0D7F1D919101
S11309309D93E617F707D9F7240F351F3093F50178
S11309402093F4018091F4019091F5018C3C910580
S113095009F058C01092F5011092F4018091100230
S113096090911102A0911202B09113028F3F2EEFC9
S113097092072DEFA2072CEFB20771F440911402F5
S1130980509115026091160270911702411551059C
S113099061057105E9F42AC0BF93AF939F938F93C8
S11309A08CEF8F938DEF8F938EEF8F938FEF8F93C9
S11309B080E091E09F938F930E94A50A8DB79EB724
S11309C00A960FB6F8949EBF0FBE8DBF81E027C074
S11309D0EAE1F2E09A01265F3F4F205F3D4F80E05D
S11309E091918927E217F307D9F701C080E090912C
S11309F09A02981309C06AE172E0C8010E949C0A35
S1130A0080E00DC083E00BC082E009C04C5C51095A
S1130A105093F7014093F6014CEC50E02DCFDF9159
S1130A20CF911F910F91FF90EF90DF90CF90089599
S1130A30EF92FF920F931F93CF93DF93CDB7DEB75F
S1130A40CC5CD1090FB6F894DEBF0FBECDBF7C01DC
S1130A508A018FEF9EEFADEFBCEF89839A83AB835E
S1130A60BC83CE010B960E949C0A0115110571F0FE
S1130A70FE013B969E01200F311F255F3F4F80E012
S1130A8091918927E217F307D9F701C080E0C55790
S1130A90DF4F8883CB58D04020E030E00D831E83A5
S1130AA02F8338878CECFE013196D70101900D928B
S1130AB08A95E1F78CEC90E0C453DF4F0FB6F894BD
S1130AC0DEBF0FBECDBFDF91CF911F910F91FF907D
S1130AD0EF9008951F920F920FB60F9211242F9347
S1130AE03F934F935F936F937F938F939F93AF93B2
S1130AF0BF93EF93FF93CF93DF931F92CDB7DEB7EE
S1130B00BE016F5F7F4F8AEF91E00E94DE03811187
S1130B1004C089818093C60007C0823029F4E1ECC7
S1130B20F0E080818F7D80830F90DF91CF91FF91E2
S1130B30EF91BF91AF919F918F917F916F915F9151
S1130B404F913F912F910F900FBE0F901F901895CA
S1130B501F920F920FB60F9211242F933F934F932E
S1130B605F936F937F938F939F93AF93BF93EF9311
S1130B70FF936091C60085E092E00E94A503FF9177
S1130B80EF91BF91AF919F918F917F916F915F9101
S1130B904F913F912F910F900FBE0F901F9018957A
S1130BA00F931F93CF93DF938C01C0E0D0E0B80183
S1130BB06C0F7D1F85E092E00E94DE03811102C06C
S1130BC02196F5CFCE01DF91CF911F910F9108951A
S1130BD00F931F93CF93DF93CDB7DEB7CC5CD109CE
S1130BE00FB6F894DEBF0FBECDBF8C01CE010196C7
S1130BF00E94D005009739F0A801BC01CE010196EE
S1130C000E94190401C083E0C453DF4F0FB6F89467
S1130C10DEBF0FBECDBFDF91CF911F910F9108951D
S1130C20EF92FF920F931F93CF93DF937C01623077
S1130C30710584F0EC0121968C01060F171F02C088
S1130C40811108C069918AEF91E00E94A503C01741
S1130C50D107B1F7F70180818093C600E1ECF0E0A1
S1130C60808180618083DF91CF911F910F91FF90EC
S1130C70EF900895CF93DF93CDB7DEB7CC5CD10965
S1130C800FB6F894DEBF0FBECDBF4CEC50E0BC01F4
S1130C90CE0101960E941805BC01CE0101960E9466
S1130CA01006C453DF4F0FB6F894DEBF0FBECDBF9E
S1130CB0DF91CF910895CF93DF93CDB7DEB7CC5CAE
S1130CC0D1090FB6F894DEBF0FBECDBF81E08A878D
S1130CD089878091180390911903A0911A03B09108
S1130CE01B03C457DF4F88839983AA83BB83CC58E3
S1130CF0D0408091140390911503A0911603B091F4
S1130D001703C057DF4F88839983AA83BB83C059D5
S1130D10D0408091100390911103A0911203B091DF
S1130D201303CC56DF4F88839983AA83BB83C459AA
S1130D30D04080910C0390910D03A0910E03B091CB
S1130D400F03C856DF4F88839983AA83BB83C8598E
S1130D50D0408091F8029091F902A091FA02B091EA
S1130D60FB02C456DF4F88839983AA83BB83CC5983
S1130D70D0408091F4029091F502A091F602B091D6
S1130D80F702C056DF4F88839983AA83BB83C05A76
S1130D90D0408091F0029091F102A091F202B091C2
S1130DA0F302CC55DF4F88839983AA83BB83C45A4B
S1130DB0D0408091EC029091ED02A091EE02B091AE
S1130DC0EF02C855DF4F88839983AA83BB83C85A2F
S1130DD0D0408091080390910903A0910A03B09137
S1130DE00B03C455DF4F88839983AA83BB83CC5AF2
S1130DF0D0408091040390910503A0910603B09123
S1130E000703C055DF4F88839983AA83BB83C05BE4
S1130E10D040CE0101960E943A06C453DF4F0FB66C
S1130E20F894DEBF0FBECDBFDF91CF910895CF936D
S1130E30DF93CDB7DEB7CC5CD1090FB6F894DEBF33
S1130E400FBECDBF82E08A878987CE0101960E94BA
S1130E503A06C453DF4F0FB6F894DEBF0FBECDBFC2
S1130E60DF91CF910895CF93DF93CDB7DEB7CC5CFC
S1130E70D1090FB6F894DEBF0FBECDBF82E08A87DA
S1130E8083E08987CE0101960E943A06C453DF4F5E
S1130E900FB6F894DEBF0FBECDBFDF91CF9108959A
S1130EA0CF93DF93CDB7DEB7CC5CD1090FB6F894FE
S1130EB0DEBF0FBECDBF82E08A8784E08987CE0182
S1130EC001960E943A06C453DF4F0FB6F894DEBF72
S1130ED00FBECDBFDF91CF910895CF93DF93CDB7F0
S1130EE0DEB7CC5CD1090FB6F894DEBF0FBECDBF20
S1130EF081E08A871986CE0101960E943A06C4537E
S1130F00DF4F0FB6F894DEBF0FBECDBFDF91CF9198
S1130F100895CF92DF92EF92FF92CF93DF93EC018B
S1130F208885833009F443C028F4882361F0823033
S1130F3021F166C0853009F459C008F452C08630E6
S1130F4009F459C05DC00E946D07FE01E157FF4FCF
S1130F5060817181828193810E9464096B017C01AB
S1130F60C557DF4F688179818A819B810E9464091A
S1130F70A70196010E94CE0145C00E946D07FE01A3
S1130F80E157FF4F60817181828193810E946409DE
S1130F906B017C01C557DF4F688179818A819B8110
S1130FA00E946409A70196010E944C022BC00E9472
S1130FB06D07FE01E157FF4F60817181828193814A
S1130FC00E9464096B017C01C557DF4F68817981F8
S1130FD08A819B810E946409A70196010E94B20242
S1130FE011C00E946D070E9418030CC00E946D0777
S1130FF00E945B0607C00E946D070E941F0302C087
S11310000E945007DF91CF91FF90EF90DF90CF9037
S11310100895FC012185211102C00E9489070895C9
S1131020CF93DF93CDB7DEB7CC5CD1090FB6F8947C
S1131030DEBF0FBECDBFCE0101960E94E80581112F
S113104005C0CE0101960E94090809C0813019F437
S11310500E94170704C0823011F40E943307809164
S1131060000390910103A0910203B0910303892B23
S11310708A2B8B2B09F46FC080912003813049F5B2
S1131080409108035091090360910A0370910B0386
S11310908091FC029091FD02A091FE02B091FF02AA
S11310A084179507A607B70708F055C010920003E8
S11310B01092010310920203109203031092FC0297
S11310C01092FD021092FE021092FF020E94180379
S11310D042C080912003823041F540910403509135
S11310E0050360910603709107038091FC029091BF
S11310F0FD02A091FE02B091FF0284179507A60796
S1131100B70748F5109200031092010310920203EE
S1131110109203031092FC021092FD021092FE0240
S11311201092FF020E94180316C0809120038111BF
S113113012C0109200031092010310920203109245
S113114003031092FC021092FD021092FE02109210
S1131150FF020E94180380E090E0C453DF4F0FB6F3
S1131160F894DEBF0FBECDBFDF91CF9108950E94EA
S1131170A10908F481E008950E94D0080C94DC09C8
S11311800E94D50958F00E94CE0940F029F45F3F2F
S113119029F00C94C50951110C94100A0C94CB0934
S11311A00E94ED0968F39923B1F3552391F3951B3C
S11311B0550BBB27AA2762177307840738F09F5F74
S11311C05F4F220F331F441FAA1FA9F335D00E2EE1
S11311D03AF0E0E832D091505040E695001CCAF74E
S11311E02BD0FE2F29D0660F771F881FBB1F261711
S11311F037074807AB07B0E809F0BB0B802DBF01E8
S1131200FF2793585F4F3AF09E3F510578F00C94B6
S1131210C5090C94100A5F3FE4F3983ED4F3869515
S113122077956795B795F7959F5FC9F7880F911DD7
S11312309695879597F90895E1E0660F771F881FC3
S1131240BB1F621773078407BA0720F0621B730B76
S1131250840BBA0BEE1F88F7E09508950E943509B8
S11312606894B1110C94100A08950E94F50988F04D
S11312709F5798F0B92F9927B751B0F0E1F0660F56
S1131280771F881F991F1AF0BA95C9F714C0B13097
S113129091F00E940F0AB1E008950C940F0A672F91
S11312A0782F8827B85F39F0B93FCCF386957795C6
S11312B06795B395D9F73EF49095809570956195AF
S11312C07F4F8F4F9F4F0895E89409C097FB3EF4DA
S11312D090958095709561957F4F8F4F9F4F99237F
S11312E0A9F0F92F96E9BB279395F69587957795FD
S11312F06795B795F111F8CFFAF4BB0F11F460FFBD
S11313001BC06F5F7F4F8F4F9F4F16C0882311F014
S113131096E911C0772321F09EE8872F762F05C028
S1131320662371F096E8862F70E060E02AF09A95C3
S1131330660F771F881FDAF7880F9695879597F9B8
S11313400895990F0008550FAA0BE0E8FEEF161652
S11313501706E807F907C0F012161306E407F507A5
S113136098F0621B730B840B950B39F40A2661F019
S1131370232B242B252B21F408950A2609F4A140BC
S1131380A6958FEF811D811D089597F99F6780E8C9
S113139070E060E008959FEF80EC089500240A94C3
S11313A01616170618060906089500240A9412163C
S11313B01306140605060895092E0394000C11F46F
S11313C0882352F0BB0F40F4BF2B11F460FF04C01C
S11313D06F5F7F4F8F4F9F4F089557FD9058440F75
S11313E0551F59F05F3F71F04795880F97FB991F80
S11313F061F09F3F79F0879508951216130614063D
S1131400551FF2CF4695F1DF08C0161617061806C9
S1131410991FF1CF86957105610508940895E894A4
S1131420BB2766277727CB0197F908950E94A10966
S113143008F48FEF08950E942E0A0C94DC090E9490
S1131440CE0938F00E94D50920F0952311F00C94B0
S1131450C5090C94CB0911240C94100A0E94ED09BF
S113146070F3959FC1F3950F50E0551F629FF001F3
S1131470729FBB27F00DB11D639FAA27F00DB11D0C
S1131480AA1F649F6627B00DA11D661F829F222795
S1131490B00DA11D621F739FB00DA11D621F839F1C
S11314A0A00D611D221F749F3327A00D611D231FF2
S11314B0849F600D211D822F762F6A2F11249F5740
S11314C050409AF0F1F088234AF0EE0FFF1FBB1F43
S11314D0661F771F881F91505040A9F79E3F510502
S11314E080F00C94C5090C94100A5F3FE4F3983E15
S11314F0D4F3869577956795B795F795E7959F5FAC
S1131500C1F7FE2B880F911D9695879597F908953D
S1131510AA1BBB1B51E107C0AA1FBB1FA617B70715
S113152010F0A61BB70B881F991F5A95A9F7809531
S11315309095BC01CD010895FB01DC0102C001902E
S11315400D9241505040D8F70895A0E0B0E0EBEA86
S1131550FAE00C945C0DAE014B5F5F4FFA016191B0
S11315607191AF0180912303909124030E94BB0ADF
S1131570E2E00C94780DABE0B0E0E1ECFAE00C941E
S11315804C0D6C017B018A01FC0117821682838158
S113159081FFCCC1CE0101963C01F6019381F70194
S11315A093FD859193FF81917F01882309F4BAC14A
S11315B0853239F493FD859193FF81917F018532C2
S11315C029F4B60190E00E94B20CE7CF912C212CB3
S11315D0312CFFE1F315D8F08B3279F038F48032F6
S11315E079F08332A1F4232D20611DC08D3261F086
S11315F0803369F4232D216016C0832D8260382E38
S1131600E32DE4603E2E2AC0F32DF8601DC037FCA4
S11316102DC020ED280F2A3040F08E32B9F436FC6C
S113162081C1232D2064322E19C036FE06C08AE003
S1131630989E200D1124922E11C0EAE02E9E200DBA
S11316401124222EF32DF0623F2E08C08C3621F493
S1131650832D8068382E02C0883641F4F70193FD4B
S1131660859193FF81917F018111B3CF982F9F7D45
S11316709554933028F40C5F1F4F9FE399830DC05A
S1131680833631F0833771F0833509F059C021C0B6
S1131690F801808189830E5F1F4F88248394912CE5
S11316A0530113C02801F2E04F0E511CF801A08031
S11316B0B18036FE03C0692D70E002C06FEF7FEF8A
S11316C0C5010E94A70C4C018201F32DFF773F2E28
S11316D016C0280122E0420E511CF801A080B180FE
S11316E036FE03C0692D70E002C06FEF7FEFC501C5
S11316F00E949C0C4C01F32DF0683F2E820133FCB8
S11317001BC0822D90E088169906B0F4B60180E2E1
S113171090E00E94B20C2A94F4CFF50137FC859135
S113172037FE81915F01B60190E00E94B20C211056
S11317302A9421E0821A91088114910471F7E8C077
S1131740843611F0893641F5F80137FE07C060810F
S11317507181828193810C5F1F4F08C06081718108
S1131760072E000C880B990B0E5F1F4FF32DFF768D
S11317703F2E97FF09C090958095709561957F4F96
S11317808F4F9F4FF0683F2E2AE030E0A3010E9464
S1131790EE0C882E861845C0853731F4232D2F7E14
S11317A0B22E2AE030E025C0932D997FB92E8F36D2
S11317B0C1F018F4883579F0B5C0803719F088374E
S11317C021F0B0C0E92FE061BE2EB4FE0DC0FB2DA8
S11317D0F460BF2E09C034FE0AC0292F2660B22E41
S11317E006C028E030E005C020E130E002C020E17E
S11317F032E0F801B7FE07C0608171818281938174
S11318000C5F1F4F06C06081718180E090E00E5F25
S11318101F4FA3010E94EE0C882E8618FB2DFF7724
S11318203F2E36FE0DC0232D2E7FA22E891458F490
S113183034FE0BC032FC09C0832D8E7EA82E05C059
S1131840B82CA32C03C0B82C01C0B92CA4FE0FC023
S1131850FE01E80DF11D8081803321F49A2D997EDB
S1131860A92E09C0A2FE06C0B394B39404C08A2D65
S1131870867809F0B394A3FC11C0A0FE06C0B2148C
S113188088F4280C922C9B180EC0B21460F4B60194
S113189080E290E00E94B20CB394F7CFB21418F433
S11318A02B1802C0982C212CA4FE10C0B60180E392
S11318B090E00E94B20CA2FE17C0A1FC03C088E70E
S11318C090E002C088E590E0B6010CC08A2D8678CD
S11318D059F0A1FE02C08BE201C080E2A7FC8DE2B8
S11318E0B60190E00E94B20C891438F4B60180E38A
S11318F090E00E94B20C9A94F7CF8A94F301E80D19
S1131900F11D8081B60190E00E94B20C8110F5CFE8
S1131910222009F442CEB60180E290E00E94B20C8B
S11319202A94F6CFF6018681978102C08FEF9FEF4C
S11319302B96E2E10C94680DFC0105906150704017
S11319400110D8F7809590958E0F9F1F0895FC0184
S11319506150704001900110D8F7809590958E0FDA
S11319609F1F08950F931F93CF93DF93FB01238150
S113197021FD03C08FEF9FEF2CC022FF16C04681CC
S11319805781248135814217530744F4A081B181E2
S11319909D012F5F3F4F318320838C9326813781B4
S11319A02F5F3F4F3783268314C08B01EC01FB016B
S11319B00084F185E02D0995892BE1F6D80116966E
S11319C08D919C911797019617969C938E931697D9
S11319D0CE01DF91CF911F910F910895FA01AA27AB
S11319E0283051F1203181F1E8946F936E7F6E5F5E
S11319F07F4F8F4F9F4FAF4FB1E03ED0B4E03CD00C
S1131A00670F781F891F9A1FA11D680F791F8A1FEE
S1131A10911DA11D6A0F711D811D911DA11D20D055
S1131A2009F468943F912AE0269F11243019305D0F
S1131A303193DEF6CF010895462F4770405D419300
S1131A40B3E00FD0C9F7F6CF462F4F70405D4A334D
S1131A5018F0495D31FD4052419302D0A9F7EACF15
S1131A60B4E0A6959795879577956795BA95C9F744
S1131A7000976105710508959B01AC010A2E069437
S1131A805795479537952795BA95C9F7620F731FF0
S1131A90841F951FA01D08952F923F924F925F922D
S1131AA06F927F928F929F92AF92BF92CF92DF926A
S1131AB0EF92FF920F931F93CF93DF93CDB7DEB7CF
S1131AC0CA1BDB0B0FB6F894DEBF0FBECDBF099463
S1131AD02A88398848885F846E847D848C849B84BA
S1131AE0AA84B984C884DF80EE80FD800C811B81C8
S1131AF0AA81B981CE0FD11D0FB6F894DEBF0FBEF7
S10D1B00CDBFED010895F894FFCF66
S1131B0A424144204D41474943204E554D42455296
S1131B1A2E20455850454354454420256C7520478A
S10B1B2A4F5420256C750A00DC
S9030000FC
