:100000000C9434000C944D010C9471010C9451002B
:100010000C9451000C9451000C9451000C9451001C
:100020000C9451000C9451000C9451000C9451000C
:100030000C9451000C9451000C9451000C945100FC
:100040000C9451000C9451000C9442040C94040440
:100050000C9451000C9451000C9451000C945100DC
:100060000C9451000C94510011241FBECFEFD8E026
:10007000DEBFCDBF11E0A0E0B1E0E0E2F6E102C0FA
:1000800005900D92A832B107D9F722E0A8E2B1E0BD
:1000900001C01D92A339B207E1F70E949B050C94A1
:1000A0000E0B0C94000080918C02813099F58091A8
:1000B000880290918902A0918A02B0918B020196E8
:1000C000A11DB11D8093880290938902A0938A029A
:1000D000B0938B02609188027091890280918A02AC
:1000E00090918B020E94EF0620E030E040E453E460
:1000F0000E94470629E23CE543EA51E40E94A60734
:100100000E94C006609378027093790280937A020D
:1001100090937B0280918C02823099F580918002CD
:1001200090918102A0918202B09183020196A11D5B
:10013000B11D8093800290938102A0938202B093BC
:10014000830260918002709181028091820290917D
:1001500083020E94EF0620E030E040E453E40E9476
:10016000470629E23CE543EA51E40E94A6070E94C3
:10017000C006609374027093750280937602909328
:10018000770280918C02833099F480916002909183
:100190006102A0916202B09163020196A11DB11D9E
:1001A0008093600290936102A0936202B093630215
:1001B00080918C02843099F4809168029091690258
:1001C000A0916A02B0916B020196A11DB11D8093AE
:1001D000680290936902A0936A02B0936B0208953B
:1001E00080918C02813099F48091840290918502F3
:1001F000A0918602B09187020196A11DB11D809346
:10020000840290938502A0938602B0938702809126
:100210008C02823099F480917C0290917D02A091B1
:100220007E02B0917F020196A11DB11D80937C02D8
:1002300090937D02A0937E02B0937F0280918C0206
:10024000833099F48091640290916502A0916602D6
:10025000B09167020196A11DB11D80936402909335
:100260006502A0936602B093670280918C0284308D
:1002700099F480915C0290915D02A0915E02B09130
:100280005F020196A11DB11D80935C0290935D02F7
:10029000A0935E02B0935F0208951F920F920FB673
:1002A0000F9211242F933F934F935F936F937F93FC
:1002B0008F939F93AF93BF93EF93FF930E9453004D
:1002C000FF91EF91BF91AF919F918F917F916F912E
:1002D0005F914F913F912F910F900FBE0F901F9004
:1002E00018951F920F920FB60F9211242F933F93E0
:1002F0004F935F936F937F938F939F93AF93BF932E
:10030000EF93FF930E94F000FF91EF91BF91AF91A7
:100310009F918F917F916F915F914F913F912F911D
:100320000F900FBE0F901F901895CF92DF92EF9213
:10033000FF926B017C0120E030E0A9010E9442069F
:1003400088239CF020E030E048EC52E4C701B6017D
:100350000E94A107181664F40F2EC12CD12CF8ECC2
:10036000EF2EF2E4FF2EF02D03C0C12CD12C76012C
:1003700020E030E048EC52E4C701B6010E94470695
:1003800020E030E04FE753E40E94A6070E94B90640
:10039000CB01FF90EF90DF90CF9008958F929F92C6
:1003A000AF92BF92CF92DF92EF92FF924B015C012E
:1003B00069017A0181E080938C0220E030E0A9019C
:1003C000C501B4010E94A10718166CF4C501B4015F
:1003D0000E94C00660937002709371028093720253
:1003E000909373020CC08FE796E9A8E9B0E0809380
:1003F000700290937102A0937202B0937302809185
:10040000780290917902A0917A02B0917B0240919A
:100410007002509171026091720270917302840FA8
:10042000951FA61FB71F80936C0290936D02A09337
:100430006E02B0936F02C701B6010E94950187BD9D
:10044000109289008093880081E884BD80938000A9
:100450005D982A98FF90EF90DF90CF90BF90AF907B
:100460009F908F90089510928C025E9829985D98C5
:100470002A9808952FB7FC012083F89408951F93BC
:10048000CF93DF93EC01162F0A960E943A028881DF
:100490009981009729F02E813F812115310521F4A2
:1004A0008A858FBF83E020C048855985421753074E
:1004B00020F08A858FBF81E017C02C813D81FC012F
:1004C000E20FF31F10838C819D8101966E817F81E5
:1004D0000E9413089D838C8388859985019699874E
:1004E00088878A858FBF80E0DF91CF911F91089523
:1004F0000F931F93CF93DF93EC018B010A960E9419
:100500003A0288819981009721F02E813F81232B27
:1005100021F48A858FBF83E021C028853985232B6C
:1005200021F48A858FBF82E019C02A813B81FC01BA
:10053000E20FF31F8081F80180838A819B810196FD
:100540006E817F810E9413089B838A8388859985A9
:100550000197998788878A858FBF80E0DF91CF9147
:100560001F910F910895CF92DF92EF92FF920F9318
:100570001F93CF93DF937C018A018091B801909102
:10058000B901892B69F14091B6015091B7014D38FD
:1005900051050CF0D5C01092B9011092B80110921B
:1005A000B7011092B60114161506D4F4A8E2B1E012
:1005B000C091B401D091B501FE01E053FE4F20E09F
:1005C00030E021966E01C20ED31E9D9191932F5F54
:1005D0003F4F24173507B4F3D092B501C092B40150
:1005E0002091B4013091B501CB01820F931F8C385B
:1005F00091056CF1CCE8D0E0C21BD30B81E090E018
:100600009093B9018093B8016C1B7D0B16161706E9
:100610009CF4F701EC0FFD1FA091B601B091B7015A
:10062000A85DBE4FAB014C0F5D1F4E0D5F1D91913C
:100630009D93E417F507D9F78091B6019091B70122
:10064000680F791F7093B7016093B601BE0116164B
:10065000170694F4F701D901A053BE4FAB016E0DFC
:100660007F1D91919D93E617F707D9F7240F351F4A
:100670003093B5012093B4018091B4019091B501FC
:100680008C38910509F058C01092B5011092B40150
:100690008091D0019091D101A091D201B091D3016C
:1006A0008F3F2EEF92072DEFA2072CEFB20771F4C8
:1006B0004091D4015091D5016091D6017091D7013C
:1006C0004115510561057105E9F42AC0BF93AF9347
:1006D0009F938F938CEF8F938DEF8F938EEF8F93EC
:1006E0008FEF8F9380E091E09F938F930E9430086B
:1006F0008DB79EB70A960FB6F8949EBF0FBE8DBFFA
:1007000081E027C0EAEDF1E09A01265F3F4F2053D8
:100710003E4F80E091918927E217F307D9F701C096
:1007200080E090915A02981309C06AED71E0C80107
:100730000E94270880E00DC083E00BC082E009C062
:100740004C5851095093B7014093B6014CE850E022
:100750002DCFDF91CF911F910F91FF90EF90DF9000
:10076000CF900895EF92FF920F931F93CF93DF9353
:10077000CDB7DEB7CC5CD1090FB6F894DEBF0FBEA3
:10078000CDBF7C018A018FEF9EEFADEFBCEF898377
:100790009A83AB83BC83CE010B960E942708011578
:1007A000110571F0FE013B969E01200F311F255F60
:1007B0003F4F80E091918927E217F307D9F701C0F5
:1007C00080E0C557DF4F8883CB58D04020E030E031
:1007D0000D831E832F8338878CECFE013196D70161
:1007E00001900D928A95E1F78CEC90E0C453DF4FB5
:1007F0000FB6F894DEBF0FBECDBFDF91CF911F9132
:100800000F91FF90EF9008951F920F920FB60F92E5
:1008100011242F933F934F935F936F937F938F9305
:100820009F93AF93BF93EF93FF93CF93DF931F9269
:10083000CDB7DEB7BE016F5F7F4F8AEB91E00E94BC
:100840007802811104C089818093C60007C082307C
:1008500029F4E1ECF0E080818F7D80830F90DF91BF
:10086000CF91FF91EF91BF91AF919F918F917F9128
:100870006F915F914F913F912F910F900FBE0F900D
:100880001F9018951F920F920FB60F9211242F935D
:100890003F934F935F936F937F938F939F93AF9308
:1008A000BF93EF93FF936091C60085EC91E00E94A7
:1008B0003F02FF91EF91BF91AF919F918F917F91F7
:1008C0006F915F914F913F912F910F900FBE0F90BD
:1008D0001F9018950F931F93CF93DF938C01C0E067
:1008E000D0E0B8016C0F7D1F85EC91E00E9478028A
:1008F000811102C02196F5CFCE01DF91CF911F91DA
:100900000F9108950F931F93CF93DF93CDB7DEB769
:10091000CC58D1090FB6F894DEBF0FBECDBF8C0105
:10092000CE0101960E946A04009739F0A801BC012B
:10093000CE0101960E94B30201C083E0C457DF4F8D
:100940000FB6F894DEBF0FBECDBFDF91CF911F91E0
:100950000F910895EF92FF920F931F93CF93DF9320
:100960007C016230710584F0EC0121968C01060F48
:10097000171F02C0811108C069918AEB91E00E94A3
:100980003F02C017D107B1F7F70180818093C600FD
:10099000E1ECF0E0808180618083DF91CF911F9155
:1009A0000F91FF90EF900895CF93DF93CDB7DEB70F
:1009B000CC58D1090FB6F894DEBF0FBECDBF4CECBA
:1009C00050E0BC01CE0101960E94B203BC01CE01F1
:1009D00001960E94AA04C457DF4F0FB6F894DEBFF9
:1009E0000FBECDBFDF91CF910895CF93DF93CDB7E9
:1009F000DEB7CC5CD1090FB6F894DEBF0FBECDBF19
:100A000082E08A878987CE0101960E94D404C4536C
:100A1000DF4F0FB6F894DEBF0FBECDBFDF91CF9191
:100A20000895CF93DF93CDB7DEB7CC5CD1090FB675
:100A3000F894DEBF0FBECDBF82E08A8783E089874E
:100A4000CE0101960E94D404C453DF4F0FB6F89430
:100A5000DEBF0FBECDBFDF91CF910895CF93DF935F
:100A6000CDB7DEB7CC5CD1090FB6F894DEBF0FBEB0
:100A7000CDBF82E08A8784E08987CE0101960E94FB
:100A8000D404C453DF4F0FB6F894DEBF0FBECDBF02
:100A9000DF91CF910895CF93DF93CDB7DEB7CC5CD4
:100AA000D1090FB6F894DEBF0FBECDBF81E08A87B3
:100AB0001986CE0101960E94D404C453DF4F0FB6AD
:100AC000F894DEBF0FBECDBFDF91CF910895CF92D6
:100AD000DF92EF92FF92CF93DF93EC018885811133
:100AE0001AC00E944B05FE01E157FF4F60817181E2
:100AF000828193810E94EF066B017C01C557DF4F15
:100B0000688179818A819B810E94EF06A701960105
:100B10000E94CE0102C00E942E05DF91CF91FF906E
:100B2000EF90DF90CF900895FC012185211102C044
:100B30000E9467050895CF93DF93CDB7DEB7CC5CF5
:100B4000D1090FB6F894DEBF0FBECDBFCE0101961E
:100B50000E948204811105C0CE0101960E94940575
:100B600009C0813019F40E94F50404C0823011F4E8
:100B70000E9411058091700290917102A091720201
:100B8000B0917302892B8A2B8B2B09F46FC0809153
:100B90008C02813049F54091780250917902609140
:100BA0007A0270917B0280916C0290916D02A0910B
:100BB0006E02B0916F0284179507A607B70708F079
:100BC00055C010927002109271021092720210922F
:100BD000730210926C0210926D0210926E021092CB
:100BE0006F020E94330242C080918C02823041F534
:100BF0004091740250917502609176027091770273
:100C000080916C0290916D02A0916E02B0916F0282
:100C100084179507A607B70748F51092700210923F
:100C20007102109272021092730210926C02109272
:100C30006D0210926E0210926F020E94330216C073
:100C400080918C02811112C0109270021092710278
:100C5000109272021092730210926C0210926D0246
:100C600010926E0210926F020E94330280E090E0B8
:100C7000C453DF4F0FB6F894DEBF0FBECDBFDF9178
:100C8000CF9108950E942C0708F481E008950E94F6
:100C90005B060C9467070E94600758F00E94590792
:100CA00040F029F45F3F29F00C94500751110C9447
:100CB0009B070C9456070E94780768F39923B1F3B9
:100CC000552391F3951B550BBB27AA276217730772
:100CD000840738F09F5F5F4F220F331F441FAA1F06
:100CE000A9F335D00E2E3AF0E0E832D091505040C2
:100CF000E695001CCAF72BD0FE2F29D0660F771F70
:100D0000881FBB1F261737074807AB07B0E809F055
:100D1000BB0B802DBF01FF2793585F4F3AF09E3FDA
:100D2000510578F00C9450070C949B075F3FE4F357
:100D3000983ED4F3869577956795B795F7959F5F1D
:100D4000C9F7880F911D9695879597F90895E1E069
:100D5000660F771F881FBB1F621773078407BA07C8
:100D600020F0621B730B840BBA0BEE1F88F7E09523
:100D700008950E94C0066894B1110C949B070895D1
:100D80000E94800788F09F5798F0B92F9927B75194
:100D9000B0F0E1F0660F771F881F991F1AF0BA951F
:100DA000C9F714C0B13091F00E949A07B1E00895DC
:100DB0000C949A07672F782F8827B85F39F0B93FCE
:100DC000CCF3869577956795B395D9F73EF49095D2
:100DD0008095709561957F4F8F4F9F4F0895E89450
:100DE00009C097FB3EF490958095709561957F4F73
:100DF0008F4F9F4F9923A9F0F92F96E9BB27939521
:100E0000F695879577956795B795F111F8CFFAF430
:100E1000BB0F11F460FF1BC06F5F7F4F8F4F9F4F61
:100E200016C0882311F096E911C0772321F09EE8BF
:100E3000872F762F05C0662371F096E8862F70E025
:100E400060E02AF09A95660F771F881FDAF7880FFF
:100E50009695879597F90895990F0008550FAA0B55
:100E6000E0E8FEEF16161706E807F907C0F01216BD
:100E70001306E407F50798F0621B730B840B950BC0
:100E800039F40A2661F0232B242B252B21F4089515
:100E90000A2609F4A140A6958FEF811D811D0895B2
:100EA00097F99F6780E870E060E008959FEF80EC1D
:100EB000089500240A9416161706180609060895C0
:100EC00000240A9412161306140605060895092E26
:100ED0000394000C11F4882352F0BB0F40F4BF2B95
:100EE00011F460FF04C06F5F7F4F8F4F9F4F0895D5
:100EF00057FD9058440F551F59F05F3F71F04795CB
:100F0000880F97FB991F61F09F3F79F087950895AF
:100F1000121613061406551FF2CF4695F1DF08C0CE
:100F2000161617061806991FF1CF869571056105EB
:100F300008940895E894BB2766277727CB0197F993
:100F400008950E942C0708F48FEF08950E94B907B6
:100F50000C9467070E94590738F00E94600720F040
:100F6000952311F00C9450070C94560711240C94FF
:100F70009B070E94780770F3959FC1F3950F50E08F
:100F8000551F629FF001729FBB27F00DB11D639F3B
:100F9000AA27F00DB11DAA1F649F6627B00DA11DE1
:100FA000661F829F2227B00DA11D621F739FB00D87
:100FB000A11D621F839FA00D611D221F749F3327F7
:100FC000A00D611D231F849F600D211D822F762F90
:100FD0006A2F11249F5750409AF0F1F088234AF06D
:100FE000EE0FFF1FBB1F661F771F881F91505040D9
:100FF000A9F79E3F510580F00C9450070C949B0775
:101000005F3FE4F3983ED4F3869577956795B7955F
:10101000F795E7959F5FC1F7FE2B880F911D969579
:10102000879597F90895AA1BBB1B51E107C0AA1F1A
:10103000BB1FA617B70710F0A61BB70B881F991F79
:101040005A95A9F780959095BC01CD010895FB01B3
:10105000DC0102C001900D9241505040D8F7089534
:10106000A0E0B0E0E6E3F8E00C94E70AAE014B5FE5
:101070005F4FFA0161917191AF0180918F02909160
:1010800090020E944608E2E00C94030BABE0B0E053
:10109000ECE4F8E00C94D70A6C017B018A01FC01B6
:1010A00017821682838181FFCCC1CE0101963C015B
:1010B000F6019381F70193FD859193FF81917F0163
:1010C000882309F4BAC1853239F493FD859193FFE1
:1010D00081917F01853229F4B60190E00E943D0A9A
:1010E000E7CF912C212C312CFFE1F315D8F08B3276
:1010F00079F038F4803279F08332A1F4232D206125
:101100001DC08D3261F0803369F4232D216016C03B
:10111000832D8260382EE32DE4603E2E2AC0F32D0D
:10112000F8601DC037FC2DC020ED280F2A3040F09C
:101130008E32B9F436FC81C1232D2064322E19C0C1
:1011400036FE06C08AE0989E200D1124922E11C012
:10115000EAE02E9E200D1124222EF32DF0623F2E68
:1011600008C08C3621F4832D8068382E02C0883662
:1011700041F4F70193FD859193FF81917F018111E6
:10118000B3CF982F9F7D9554933028F40C5F1F4F59
:101190009FE399830DC0833631F0833771F0833537
:1011A00009F059C021C0F801808189830E5F1F4F6B
:1011B00088248394912C530113C02801F2E04F0E30
:1011C000511CF801A080B18036FE03C0692D70E08B
:1011D00002C06FEF7FEFC5010E94320A4C0182010D
:1011E000F32DFF773F2E16C0280122E0420E511C3E
:1011F000F801A080B18036FE03C0692D70E002C006
:101200006FEF7FEFC5010E94270A4C01F32DF068B4
:101210003F2E820133FC1BC0822D90E08816990678
:10122000B0F4B60180E290E00E943D0A2A94F4CF27
:10123000F50137FC859137FE81915F01B60190E0A1
:101240000E943D0A21102A9421E0821A91088114FB
:10125000910471F7E8C0843611F0893641F5F80140
:1012600037FE07C060817181828193810C5F1F4FBF
:1012700008C060817181072E000C880B990B0E5FEE
:101280001F4FF32DFF763F2E97FF09C09095809555
:10129000709561957F4F8F4F9F4FF0683F2E2AE0EA
:1012A00030E0A3010E94790A882E861845C0853750
:1012B00031F4232D2F7EB22E2AE030E025C0932D6D
:1012C000997FB92E8F36C1F018F4883579F0B5C002
:1012D000803719F0883721F0B0C0E92FE061BE2EC9
:1012E000B4FE0DC0FB2DF460BF2E09C034FE0AC051
:1012F000292F2660B22E06C028E030E005C020E18C
:1013000030E002C020E132E0F801B7FE07C06081A2
:101310007181828193810C5F1F4F06C06081718152
:1013200080E090E00E5F1F4FA3010E94790A882E93
:101330008618FB2DFF773F2E36FE0DC0232D2E7F06
:10134000A22E891458F434FE0BC032FC09C0832D40
:101350008E7EA82E05C0B82CA32C03C0B82C01C0CB
:10136000B92CA4FE0FC0FE01E80DF11D8081803371
:1013700021F49A2D997EA92E09C0A2FE06C0B3942D
:10138000B39404C08A2D867809F0B394A3FC11C0ED
:10139000A0FE06C0B21488F4280C922C9B180EC034
:1013A000B21460F4B60180E290E00E943D0AB3946A
:1013B000F7CFB21418F42B1802C0982C212CA4FEDD
:1013C00010C0B60180E390E00E943D0AA2FE17C063
:1013D000A1FC03C088E790E002C088E590E0B60178
:1013E0000CC08A2D867859F0A1FE02C08BE201C0A4
:1013F00080E2A7FC8DE2B60190E00E943D0A8914CC
:1014000038F4B60180E390E00E943D0A9A94F7CF49
:101410008A94F301E80DF11D8081B60190E00E94ED
:101420003D0A8110F5CF222009F442CEB60180E2B8
:1014300090E00E943D0A2A94F6CFF60186819781BA
:1014400002C08FEF9FEF2B96E2E10C94F30AFC01B0
:101450000590615070400110D8F7809590958E0FDF
:101460009F1F0895FC016150704001900110D8F752
:10147000809590958E0F9F1F08950F931F93CF9384
:10148000DF93FB01238121FD03C08FEF9FEF2CC071
:1014900022FF16C0468157812481358142175307A8
:1014A00044F4A081B1819D012F5F3F4F31832083A0
:1014B0008C93268137812F5F3F4F3783268314C05B
:1014C0008B01EC01FB010084F185E02D0995892B4E
:1014D000E1F6D80116968D919C9117970196179673
:1014E0009C938E931697CE01DF91CF911F910F9110
:1014F0000895FA01AA27283051F1203181F1E894AA
:101500006F936E7F6E5F7F4F8F4F9F4FAF4FB1E0F6
:101510003ED0B4E03CD0670F781F891F9A1FA11DF1
:10152000680F791F8A1F911DA11D6A0F711D811DF2
:10153000911DA11D20D009F468943F912AE0269FB7
:1015400011243019305D3193DEF6CF010895462F16
:101550004770405D4193B3E00FD0C9F7F6CF462FF7
:101560004F70405D4A3318F0495D31FD4052419360
:1015700002D0A9F7EACFB4E0A6959795879577951D
:101580006795BA95C9F700976105710508959B01A4
:10159000AC010A2E06945795479537952795BA952D
:1015A000C9F7620F731F841F951FA01D08952F9206
:1015B0003F924F925F926F927F928F929F92AF92E3
:1015C000BF92CF92DF92EF92FF920F931F93CF9330
:1015D000DF93CDB7DEB7CA1BDB0B0FB6F894DEBFC7
:1015E0000FBECDBF09942A88398848885F846E84ED
:1015F0007D848C849B84AA84B984C884DF80EE8037
:10160000FD800C811B81AA81B981CE0FD11D0FB63F
:10161000F894DEBF0FBECDBFED010895F894FFCF63
:10162000424144204D41474943204E554D42455289
:101630002E20455850454354454420256C7520477D
:081640004F5420256C750A00CF
:00000001FF
